{
  "contractName": "FelixPool",
  "abi": [
    {
      "constant": true,
      "inputs": [],
      "name": "rate",
      "outputs": [
        {
          "name": "",
          "type": "uint256"
        }
      ],
      "payable": false,
      "stateMutability": "view",
      "type": "function"
    },
    {
      "constant": true,
      "inputs": [],
      "name": "endTime",
      "outputs": [
        {
          "name": "",
          "type": "uint256"
        }
      ],
      "payable": false,
      "stateMutability": "view",
      "type": "function"
    },
    {
      "constant": true,
      "inputs": [],
      "name": "totalContributions",
      "outputs": [
        {
          "name": "",
          "type": "uint256"
        }
      ],
      "payable": false,
      "stateMutability": "view",
      "type": "function"
    },
    {
      "constant": true,
      "inputs": [
        {
          "name": "",
          "type": "address"
        }
      ],
      "name": "tokenEntitlement",
      "outputs": [
        {
          "name": "",
          "type": "uint256"
        }
      ],
      "payable": false,
      "stateMutability": "view",
      "type": "function"
    },
    {
      "constant": true,
      "inputs": [],
      "name": "threshold",
      "outputs": [
        {
          "name": "",
          "type": "uint256"
        }
      ],
      "payable": false,
      "stateMutability": "view",
      "type": "function"
    },
    {
      "constant": true,
      "inputs": [
        {
          "name": "",
          "type": "address"
        }
      ],
      "name": "contributions",
      "outputs": [
        {
          "name": "",
          "type": "uint256"
        }
      ],
      "payable": false,
      "stateMutability": "view",
      "type": "function"
    },
    {
      "constant": true,
      "inputs": [],
      "name": "startTime",
      "outputs": [
        {
          "name": "",
          "type": "uint256"
        }
      ],
      "payable": false,
      "stateMutability": "view",
      "type": "function"
    },
    {
      "constant": true,
      "inputs": [],
      "name": "totalTokens",
      "outputs": [
        {
          "name": "",
          "type": "uint256"
        }
      ],
      "payable": false,
      "stateMutability": "view",
      "type": "function"
    },
    {
      "constant": true,
      "inputs": [],
      "name": "tokenAddressConfirmed",
      "outputs": [
        {
          "name": "",
          "type": "bool"
        }
      ],
      "payable": false,
      "stateMutability": "view",
      "type": "function"
    },
    {
      "constant": true,
      "inputs": [],
      "name": "admin",
      "outputs": [
        {
          "name": "",
          "type": "address"
        }
      ],
      "payable": false,
      "stateMutability": "view",
      "type": "function"
    },
    {
      "constant": true,
      "inputs": [],
      "name": "token",
      "outputs": [
        {
          "name": "",
          "type": "address"
        }
      ],
      "payable": false,
      "stateMutability": "view",
      "type": "function"
    },
    {
      "inputs": [
        {
          "name": "_threshold",
          "type": "uint256"
        },
        {
          "name": "_startTime",
          "type": "uint256"
        },
        {
          "name": "_endTime",
          "type": "uint256"
        },
        {
          "name": "_rate",
          "type": "uint256"
        }
      ],
      "payable": false,
      "stateMutability": "nonpayable",
      "type": "constructor"
    },
    {
      "payable": true,
      "stateMutability": "payable",
      "type": "fallback"
    },
    {
      "anonymous": false,
      "inputs": [
        {
          "indexed": true,
          "name": "investor",
          "type": "address"
        },
        {
          "indexed": false,
          "name": "contribution",
          "type": "uint256"
        }
      ],
      "name": "ContributionMade",
      "type": "event"
    },
    {
      "anonymous": false,
      "inputs": [
        {
          "indexed": true,
          "name": "investor",
          "type": "address"
        },
        {
          "indexed": false,
          "name": "contribution",
          "type": "uint256"
        }
      ],
      "name": "ContributionWithdrawn",
      "type": "event"
    },
    {
      "anonymous": false,
      "inputs": [
        {
          "indexed": false,
          "name": "tokenAddress",
          "type": "address"
        }
      ],
      "name": "TokenConfirmed",
      "type": "event"
    },
    {
      "anonymous": false,
      "inputs": [
        {
          "indexed": true,
          "name": "investor",
          "type": "address"
        },
        {
          "indexed": false,
          "name": "claimed",
          "type": "uint256"
        }
      ],
      "name": "TokensClaimed",
      "type": "event"
    },
    {
      "constant": false,
      "inputs": [],
      "name": "deposit",
      "outputs": [],
      "payable": true,
      "stateMutability": "payable",
      "type": "function"
    },
    {
      "constant": false,
      "inputs": [],
      "name": "withdrawContribution",
      "outputs": [],
      "payable": false,
      "stateMutability": "nonpayable",
      "type": "function"
    },
    {
      "constant": false,
      "inputs": [
        {
          "name": "_tokenAddress",
          "type": "address"
        }
      ],
      "name": "confirmTokenAddress",
      "outputs": [],
      "payable": false,
      "stateMutability": "nonpayable",
      "type": "function"
    },
    {
      "constant": false,
      "inputs": [],
      "name": "claimEntitledTokens",
      "outputs": [],
      "payable": false,
      "stateMutability": "nonpayable",
      "type": "function"
    }
  ],
  "bytecode": "0x608060405234801561001057600080fd5b50604051608080610f2c8339810180604052810190808051906020019092919080519060200190929190805190602001909291908051906020019092919050505033600660006101000a81548173ffffffffffffffffffffffffffffffffffffffff021916908373ffffffffffffffffffffffffffffffffffffffff160217905550600084141580156100a4575060008114155b15156100af57600080fd5b42831180156100bd57508183105b15156100c857600080fd5b8360008190555082600181905550816002819055508060038190555050505050610e35806100f76000396000f3006080604052600436106100db576000357c0100000000000000000000000000000000000000000000000000000000900463ffffffff1680630d616d20146100e55780632378ae2c146100fc5780632c4e722e1461013f5780633197cbb61461016a57806332957efb1461019557806337c08923146101ac5780634188a585146101d757806342cde4e81461022e57806342e94c901461025957806378e97925146102b05780637e1c0c09146102db578063d0e30db014610306578063e0662f2714610310578063f851a4401461033f578063fc0c546a14610396575b6100e36103ed565b005b3480156100f157600080fd5b506100fa6105cd565b005b34801561010857600080fd5b5061013d600480360381019080803573ffffffffffffffffffffffffffffffffffffffff169060200190929190505050610855565b005b34801561014b57600080fd5b50610154610a8b565b6040518082815260200191505060405180910390f35b34801561017657600080fd5b5061017f610a91565b6040518082815260200191505060405180910390f35b3480156101a157600080fd5b506101aa610a97565b005b3480156101b857600080fd5b506101c1610cdb565b6040518082815260200191505060405180910390f35b3480156101e357600080fd5b50610218600480360381019080803573ffffffffffffffffffffffffffffffffffffffff169060200190929190505050610ce1565b6040518082815260200191505060405180910390f35b34801561023a57600080fd5b50610243610cf9565b6040518082815260200191505060405180910390f35b34801561026557600080fd5b5061029a600480360381019080803573ffffffffffffffffffffffffffffffffffffffff169060200190929190505050610cff565b6040518082815260200191505060405180910390f35b3480156102bc57600080fd5b506102c5610d17565b6040518082815260200191505060405180910390f35b3480156102e757600080fd5b506102f0610d1d565b6040518082815260200191505060405180910390f35b61030e6103ed565b005b34801561031c57600080fd5b50610325610d23565b604051808215151515815260200191505060405180910390f35b34801561034b57600080fd5b50610354610d36565b604051808273ffffffffffffffffffffffffffffffffffffffff1673ffffffffffffffffffffffffffffffffffffffff16815260200191505060405180910390f35b3480156103a257600080fd5b506103ab610d5c565b604051808273ffffffffffffffffffffffffffffffffffffffff1673ffffffffffffffffffffffffffffffffffffffff16815260200191505060405180910390f35b600080600254421115151561040157600080fd5b34915061041960035483610d8290919063ffffffff16565b905061046d82600860003373ffffffffffffffffffffffffffffffffffffffff1673ffffffffffffffffffffffffffffffffffffffff16815260200190815260200160002054610dba90919063ffffffff16565b600860003373ffffffffffffffffffffffffffffffffffffffff1673ffffffffffffffffffffffffffffffffffffffff1681526020019081526020016000208190555061050281600960003373ffffffffffffffffffffffffffffffffffffffff1673ffffffffffffffffffffffffffffffffffffffff16815260200190815260200160002054610dba90919063ffffffff16565b600960003373ffffffffffffffffffffffffffffffffffffffff1673ffffffffffffffffffffffffffffffffffffffff1681526020019081526020016000208190555061055a81600454610dba90919063ffffffff16565b60048190555061057582600554610dba90919063ffffffff16565b6005819055503373ffffffffffffffffffffffffffffffffffffffff167f6770260ea820d2f539364e7617e021543aaf6d192f2fd2a47c20db6bd99a4eb9836040518082815260200191505060405180910390a25050565b6000600254421115806105e457506105e3610dd6565b5b15156105ef57600080fd5b6000600860003373ffffffffffffffffffffffffffffffffffffffff1673ffffffffffffffffffffffffffffffffffffffff1681526020019081526020016000205411151561063d57600080fd5b600860003373ffffffffffffffffffffffffffffffffffffffff1673ffffffffffffffffffffffffffffffffffffffff1681526020019081526020016000205490506106d3600960003373ffffffffffffffffffffffffffffffffffffffff1673ffffffffffffffffffffffffffffffffffffffff16815260200190815260200160002054600454610df090919063ffffffff16565b60048190555061072d600860003373ffffffffffffffffffffffffffffffffffffffff1673ffffffffffffffffffffffffffffffffffffffff16815260200190815260200160002054600554610df090919063ffffffff16565b6005819055506000600960003373ffffffffffffffffffffffffffffffffffffffff1673ffffffffffffffffffffffffffffffffffffffff168152602001908152602001600020819055506000600860003373ffffffffffffffffffffffffffffffffffffffff1673ffffffffffffffffffffffffffffffffffffffff168152602001908152602001600020819055503373ffffffffffffffffffffffffffffffffffffffff166108fc829081150290604051600060405180830381858888f19350505050158015610803573d6000803e3d6000fd5b503373ffffffffffffffffffffffffffffffffffffffff167fd6519e08ea229fce51d7ff642029f51927b4f4e0070fed87fdd3b4f12a9028cc826040518082815260200191505060405180910390a250565b600660009054906101000a900473ffffffffffffffffffffffffffffffffffffffff1673ffffffffffffffffffffffffffffffffffffffff163373ffffffffffffffffffffffffffffffffffffffff161415156108b157600080fd5b600254421115156108c157600080fd5b6001600660146101000a81548160ff02191690831515021790555080600760006101000a81548173ffffffffffffffffffffffffffffffffffffffff021916908373ffffffffffffffffffffffffffffffffffffffff160217905550600454600760009054906101000a900473ffffffffffffffffffffffffffffffffffffffff1673ffffffffffffffffffffffffffffffffffffffff166370a08231306040518263ffffffff167c0100000000000000000000000000000000000000000000000000000000028152600401808273ffffffffffffffffffffffffffffffffffffffff1673ffffffffffffffffffffffffffffffffffffffff168152602001915050602060405180830381600087803b1580156109dd57600080fd5b505af11580156109f1573d6000803e3d6000fd5b505050506040513d6020811015610a0757600080fd5b810190808051906020019092919050505010151515610a2557600080fd5b7ffcd5c07ad22de8ea464ad518baeb75a11aca856d4ef893a6edd7836079403e9081604051808273ffffffffffffffffffffffffffffffffffffffff1673ffffffffffffffffffffffffffffffffffffffff16815260200191505060405180910390a150565b60035481565b60025481565b6000600660149054906101000a900460ff161515610ab457600080fd5b6000600960003373ffffffffffffffffffffffffffffffffffffffff1673ffffffffffffffffffffffffffffffffffffffff16815260200190815260200160002054111515610b0257600080fd5b600960003373ffffffffffffffffffffffffffffffffffffffff1673ffffffffffffffffffffffffffffffffffffffff1681526020019081526020016000205490506000600960003373ffffffffffffffffffffffffffffffffffffffff1673ffffffffffffffffffffffffffffffffffffffff16815260200190815260200160002081905550600760009054906101000a900473ffffffffffffffffffffffffffffffffffffffff1673ffffffffffffffffffffffffffffffffffffffff1663a9059cbb33836040518363ffffffff167c0100000000000000000000000000000000000000000000000000000000028152600401808373ffffffffffffffffffffffffffffffffffffffff1673ffffffffffffffffffffffffffffffffffffffff16815260200182815260200192505050602060405180830381600087803b158015610c4e57600080fd5b505af1158015610c62573d6000803e3d6000fd5b505050506040513d6020811015610c7857600080fd5b8101908080519060200190929190505050503373ffffffffffffffffffffffffffffffffffffffff167f896e034966eaaf1adc54acc0f257056febbd300c9e47182cf761982cf1f5e430826040518082815260200191505060405180910390a250565b60055481565b60096020528060005260406000206000915090505481565b60005481565b60086020528060005260406000206000915090505481565b60015481565b60045481565b600660149054906101000a900460ff1681565b600660009054906101000a900473ffffffffffffffffffffffffffffffffffffffff1681565b600760009054906101000a900473ffffffffffffffffffffffffffffffffffffffff1681565b600080831415610d955760009050610db4565b8183029050818382811515610da657fe5b04141515610db057fe5b8090505b92915050565b60008183019050828110151515610dcd57fe5b80905092915050565b60008054600554108015610deb575060025442115b905090565b6000828211151515610dfe57fe5b8183039050929150505600a165627a7a7230582079cb954d9bea12cc9f0feda477c099b3bb511824c63a69e972962979e70710100029",
  "source": "import 'openzeppelin-solidity/contracts/math/SafeMath.sol';\nimport 'openzeppelin-solidity/contracts/token/ERC20/ERC20.sol';\n\npragma solidity 0.4.23;\n\n\ncontract FelixPool {\n    using SafeMath for uint;\n    uint public threshold;\n    uint public startTime;\n    uint public endTime;\n    uint public rate;\n    uint public totalTokens;\n    uint public totalContributions;\n    address public admin;\n    bool public tokenAddressConfirmed;\n\n    ERC20 public token;\n\n    mapping (address => uint) public contributions;\n    mapping (address => uint) public tokenEntitlement;\n\n    event ContributionMade(address indexed investor, uint contribution);\n    event ContributionWithdrawn(address indexed investor, uint contribution);\n    event TokenConfirmed(address tokenAddress);\n    event TokensClaimed(address indexed investor, uint claimed);\n\n    /*\n     * @dev Constructor function of FelixPool contract\n     * @param _threshold minimum amount of WEI for the pool to be successful\n     * @param _startTime unix timestamp when pool deposits begin being accepted\n     * @param _endTime unix timestamp when pool is no longer accepting deposits\n     * @param _rate multiplier which defines how many tokens to be received per Ether\n     */\n    constructor(uint _threshold, uint _startTime, uint _endTime, uint _rate) public {\n        admin = msg.sender;\n        require(_threshold != 0 && _rate != 0);\n        require(_startTime > now && _startTime < _endTime);\n\n        threshold = _threshold;\n        startTime = _startTime;\n        endTime = _endTime;\n        rate = _rate;\n    }\n\n  /*\n   * @dev Fallback\n   */\n    function () public payable {\n        deposit();\n    }\n\n    /*\n     * @dev Allows contributors to invest in the pool\n     */\n    function deposit() public payable {\n        require(now <= endTime);\n        uint value = msg.value;\n        uint tokensToReceive = value.mul(rate);\n\n        contributions[msg.sender] = contributions[msg.sender].add(value);\n        tokenEntitlement[msg.sender] = tokenEntitlement[msg.sender].add(tokensToReceive);\n        totalTokens = totalTokens.add(tokensToReceive);\n        totalContributions = totalContributions.add(value);\n        emit ContributionMade(msg.sender, value);\n    }\n\n    /*\n     * @dev Allows contributors to withdral their investments before the pool closes\n     * or when the refundsAllowed flag is set\n     */\n    function withdrawContribution() public {\n        require(now <= endTime || refundsAllowed());\n        require(contributions[msg.sender] > 0);\n\n        uint withdrawalValue = contributions[msg.sender];\n        totalTokens = totalTokens.sub(tokenEntitlement[msg.sender]);\n        totalContributions = totalContributions.sub(contributions[msg.sender]);\n\n        tokenEntitlement[msg.sender] = 0;\n        contributions[msg.sender] = 0;\n        msg.sender.transfer(withdrawalValue);\n\n        emit ContributionWithdrawn(msg.sender, withdrawalValue);\n    }\n\n    /*\n     * @dev Add ERC20 token for the contract\n     * @param _tokenAddress ERC20 token contract address\n     */\n    function confirmTokenAddress(ERC20 _tokenAddress) public {\n        require(msg.sender == admin);\n        require(now > endTime);\n\n        tokenAddressConfirmed = true;\n        token = ERC20(_tokenAddress);\n\n        require(token.balanceOf(address(this)) >= totalTokens);\n        emit TokenConfirmed(_tokenAddress);\n    }\n\n    /*\n     * @dev Allow investors to claim their purchase tokens\n     */\n    function claimEntitledTokens() public {\n        require(tokenAddressConfirmed);\n        require(tokenEntitlement[msg.sender] > 0);\n\n        uint entitlement = tokenEntitlement[msg.sender];\n        tokenEntitlement[msg.sender] = 0;\n        token.transfer(msg.sender, entitlement);\n        emit TokensClaimed(msg.sender, entitlement);\n    }\n\n    function refundsAllowed() internal view returns(bool) {\n        return (totalContributions < threshold && now > endTime);\n    }\n}\n",
  "sourcePath": "/Users/michaelteixeira/Documents/Development/Blockchain/felix-contract/contracts/FelixPool.sol",
  "compiler": {
    "name": "solc",
    "version": "0.4.23+commit.124ca40d.Emscripten.clang"
  },
  "schemaVersion": "2.0.0",
  "updatedAt": "2018-05-07T00:45:06.583Z"
}