{
  "contractName": "FelixPool",
  "abi": [
    {
      "constant": true,
      "inputs": [],
      "name": "rate",
      "outputs": [
        {
          "name": "",
          "type": "uint256"
        }
      ],
      "payable": false,
      "stateMutability": "view",
      "type": "function"
    },
    {
      "constant": true,
      "inputs": [],
      "name": "endTime",
      "outputs": [
        {
          "name": "",
          "type": "uint256"
        }
      ],
      "payable": false,
      "stateMutability": "view",
      "type": "function"
    },
    {
      "constant": true,
      "inputs": [],
      "name": "totalContributions",
      "outputs": [
        {
          "name": "",
          "type": "uint256"
        }
      ],
      "payable": false,
      "stateMutability": "view",
      "type": "function"
    },
    {
      "constant": true,
      "inputs": [],
      "name": "threshold",
      "outputs": [
        {
          "name": "",
          "type": "uint256"
        }
      ],
      "payable": false,
      "stateMutability": "view",
      "type": "function"
    },
    {
      "constant": true,
      "inputs": [
        {
          "name": "",
          "type": "address"
        }
      ],
      "name": "contributions",
      "outputs": [
        {
          "name": "",
          "type": "uint256"
        }
      ],
      "payable": false,
      "stateMutability": "view",
      "type": "function"
    },
    {
      "constant": true,
      "inputs": [
        {
          "name": "",
          "type": "address"
        }
      ],
      "name": "tokenEntitlements",
      "outputs": [
        {
          "name": "",
          "type": "uint256"
        }
      ],
      "payable": false,
      "stateMutability": "view",
      "type": "function"
    },
    {
      "constant": true,
      "inputs": [],
      "name": "totalTokens",
      "outputs": [
        {
          "name": "",
          "type": "uint256"
        }
      ],
      "payable": false,
      "stateMutability": "view",
      "type": "function"
    },
    {
      "constant": true,
      "inputs": [],
      "name": "tokenAddressConfirmed",
      "outputs": [
        {
          "name": "",
          "type": "bool"
        }
      ],
      "payable": false,
      "stateMutability": "view",
      "type": "function"
    },
    {
      "constant": true,
      "inputs": [],
      "name": "admin",
      "outputs": [
        {
          "name": "",
          "type": "address"
        }
      ],
      "payable": false,
      "stateMutability": "view",
      "type": "function"
    },
    {
      "constant": true,
      "inputs": [],
      "name": "token",
      "outputs": [
        {
          "name": "",
          "type": "address"
        }
      ],
      "payable": false,
      "stateMutability": "view",
      "type": "function"
    },
    {
      "inputs": [
        {
          "name": "_threshold",
          "type": "uint256"
        },
        {
          "name": "_endTime",
          "type": "uint256"
        },
        {
          "name": "_rate",
          "type": "uint256"
        }
      ],
      "payable": false,
      "stateMutability": "nonpayable",
      "type": "constructor"
    },
    {
      "payable": true,
      "stateMutability": "payable",
      "type": "fallback"
    },
    {
      "anonymous": false,
      "inputs": [
        {
          "indexed": true,
          "name": "investor",
          "type": "address"
        },
        {
          "indexed": false,
          "name": "contribution",
          "type": "uint256"
        }
      ],
      "name": "ContributionMade",
      "type": "event"
    },
    {
      "anonymous": false,
      "inputs": [
        {
          "indexed": true,
          "name": "investor",
          "type": "address"
        },
        {
          "indexed": false,
          "name": "contribution",
          "type": "uint256"
        }
      ],
      "name": "ContributionWithdrawn",
      "type": "event"
    },
    {
      "anonymous": false,
      "inputs": [
        {
          "indexed": false,
          "name": "tokenAddress",
          "type": "address"
        }
      ],
      "name": "TokenConfirmed",
      "type": "event"
    },
    {
      "anonymous": false,
      "inputs": [
        {
          "indexed": true,
          "name": "investor",
          "type": "address"
        },
        {
          "indexed": false,
          "name": "claimed",
          "type": "uint256"
        }
      ],
      "name": "TokensClaimed",
      "type": "event"
    },
    {
      "constant": false,
      "inputs": [],
      "name": "deposit",
      "outputs": [],
      "payable": true,
      "stateMutability": "payable",
      "type": "function"
    },
    {
      "constant": false,
      "inputs": [],
      "name": "withdrawContribution",
      "outputs": [],
      "payable": false,
      "stateMutability": "nonpayable",
      "type": "function"
    },
    {
      "constant": false,
      "inputs": [
        {
          "name": "_tokenAddress",
          "type": "address"
        }
      ],
      "name": "confirmTokenAddress",
      "outputs": [],
      "payable": false,
      "stateMutability": "nonpayable",
      "type": "function"
    },
    {
      "constant": false,
      "inputs": [],
      "name": "claimEntitledTokens",
      "outputs": [],
      "payable": false,
      "stateMutability": "nonpayable",
      "type": "function"
    }
  ],
  "bytecode": "0x608060405234801561001057600080fd5b50604051606080610e6883398101806040528101908080519060200190929190805190602001909291908051906020019092919050505033600560006101000a81548173ffffffffffffffffffffffffffffffffffffffff021916908373ffffffffffffffffffffffffffffffffffffffff1602179055506000831415801561009a575060008114155b15156100a557600080fd5b81421015156100b357600080fd5b826000819055508160018190555080600281905550505050610d8e806100da6000396000f3006080604052600436106100d0576000357c0100000000000000000000000000000000000000000000000000000000900463ffffffff1680630d616d20146100da5780632378ae2c146100f15780632c4e722e146101345780633197cbb61461015f57806332957efb1461018a57806337c08923146101a157806342cde4e8146101cc57806342e94c90146101f757806352a168cf1461024e5780637e1c0c09146102a5578063d0e30db0146102d0578063e0662f27146102da578063f851a44014610309578063fc0c546a14610360575b6100d86103b7565b005b3480156100e657600080fd5b506100ef610597565b005b3480156100fd57600080fd5b50610132600480360381019080803573ffffffffffffffffffffffffffffffffffffffff1690602001909291905050506107ce565b005b34801561014057600080fd5b50610149610a04565b6040518082815260200191505060405180910390f35b34801561016b57600080fd5b50610174610a0a565b6040518082815260200191505060405180910390f35b34801561019657600080fd5b5061019f610a10565b005b3480156101ad57600080fd5b506101b6610c54565b6040518082815260200191505060405180910390f35b3480156101d857600080fd5b506101e1610c5a565b6040518082815260200191505060405180910390f35b34801561020357600080fd5b50610238600480360381019080803573ffffffffffffffffffffffffffffffffffffffff169060200190929190505050610c60565b6040518082815260200191505060405180910390f35b34801561025a57600080fd5b5061028f600480360381019080803573ffffffffffffffffffffffffffffffffffffffff169060200190929190505050610c78565b6040518082815260200191505060405180910390f35b3480156102b157600080fd5b506102ba610c90565b6040518082815260200191505060405180910390f35b6102d86103b7565b005b3480156102e657600080fd5b506102ef610c96565b604051808215151515815260200191505060405180910390f35b34801561031557600080fd5b5061031e610ca9565b604051808273ffffffffffffffffffffffffffffffffffffffff1673ffffffffffffffffffffffffffffffffffffffff16815260200191505060405180910390f35b34801561036c57600080fd5b50610375610ccf565b604051808273ffffffffffffffffffffffffffffffffffffffff1673ffffffffffffffffffffffffffffffffffffffff16815260200191505060405180910390f35b60008060015442111515156103cb57600080fd5b3491506103e360025483610cf590919063ffffffff16565b905061043782600760003373ffffffffffffffffffffffffffffffffffffffff1673ffffffffffffffffffffffffffffffffffffffff16815260200190815260200160002054610d2d90919063ffffffff16565b600760003373ffffffffffffffffffffffffffffffffffffffff1673ffffffffffffffffffffffffffffffffffffffff168152602001908152602001600020819055506104cc81600860003373ffffffffffffffffffffffffffffffffffffffff1673ffffffffffffffffffffffffffffffffffffffff16815260200190815260200160002054610d2d90919063ffffffff16565b600860003373ffffffffffffffffffffffffffffffffffffffff1673ffffffffffffffffffffffffffffffffffffffff1681526020019081526020016000208190555061052481600354610d2d90919063ffffffff16565b60038190555061053f82600454610d2d90919063ffffffff16565b6004819055503373ffffffffffffffffffffffffffffffffffffffff167f6770260ea820d2f539364e7617e021543aaf6d192f2fd2a47c20db6bd99a4eb9836040518082815260200191505060405180910390a25050565b600080546004541080156105ea57506000600760003373ffffffffffffffffffffffffffffffffffffffff1673ffffffffffffffffffffffffffffffffffffffff16815260200190815260200160002054115b15156105f557600080fd5b600760003373ffffffffffffffffffffffffffffffffffffffff1673ffffffffffffffffffffffffffffffffffffffff16815260200190815260200160002054905061064c81600454610d4990919063ffffffff16565b6004819055506106a6600860003373ffffffffffffffffffffffffffffffffffffffff1673ffffffffffffffffffffffffffffffffffffffff16815260200190815260200160002054600354610d4990919063ffffffff16565b6003819055506000600860003373ffffffffffffffffffffffffffffffffffffffff1673ffffffffffffffffffffffffffffffffffffffff168152602001908152602001600020819055506000600760003373ffffffffffffffffffffffffffffffffffffffff1673ffffffffffffffffffffffffffffffffffffffff168152602001908152602001600020819055503373ffffffffffffffffffffffffffffffffffffffff166108fc829081150290604051600060405180830381858888f1935050505015801561077c573d6000803e3d6000fd5b503373ffffffffffffffffffffffffffffffffffffffff167fd6519e08ea229fce51d7ff642029f51927b4f4e0070fed87fdd3b4f12a9028cc826040518082815260200191505060405180910390a250565b600560009054906101000a900473ffffffffffffffffffffffffffffffffffffffff1673ffffffffffffffffffffffffffffffffffffffff163373ffffffffffffffffffffffffffffffffffffffff1614151561082a57600080fd5b6001544211151561083a57600080fd5b6001600560146101000a81548160ff02191690831515021790555080600660006101000a81548173ffffffffffffffffffffffffffffffffffffffff021916908373ffffffffffffffffffffffffffffffffffffffff160217905550600354600660009054906101000a900473ffffffffffffffffffffffffffffffffffffffff1673ffffffffffffffffffffffffffffffffffffffff166370a08231306040518263ffffffff167c0100000000000000000000000000000000000000000000000000000000028152600401808273ffffffffffffffffffffffffffffffffffffffff1673ffffffffffffffffffffffffffffffffffffffff168152602001915050602060405180830381600087803b15801561095657600080fd5b505af115801561096a573d6000803e3d6000fd5b505050506040513d602081101561098057600080fd5b81019080805190602001909291905050501015151561099e57600080fd5b7ffcd5c07ad22de8ea464ad518baeb75a11aca856d4ef893a6edd7836079403e9081604051808273ffffffffffffffffffffffffffffffffffffffff1673ffffffffffffffffffffffffffffffffffffffff16815260200191505060405180910390a150565b60025481565b60015481565b6000600560149054906101000a900460ff161515610a2d57600080fd5b6000600860003373ffffffffffffffffffffffffffffffffffffffff1673ffffffffffffffffffffffffffffffffffffffff16815260200190815260200160002054111515610a7b57600080fd5b600860003373ffffffffffffffffffffffffffffffffffffffff1673ffffffffffffffffffffffffffffffffffffffff1681526020019081526020016000205490506000600860003373ffffffffffffffffffffffffffffffffffffffff1673ffffffffffffffffffffffffffffffffffffffff16815260200190815260200160002081905550600660009054906101000a900473ffffffffffffffffffffffffffffffffffffffff1673ffffffffffffffffffffffffffffffffffffffff1663a9059cbb33836040518363ffffffff167c0100000000000000000000000000000000000000000000000000000000028152600401808373ffffffffffffffffffffffffffffffffffffffff1673ffffffffffffffffffffffffffffffffffffffff16815260200182815260200192505050602060405180830381600087803b158015610bc757600080fd5b505af1158015610bdb573d6000803e3d6000fd5b505050506040513d6020811015610bf157600080fd5b8101908080519060200190929190505050503373ffffffffffffffffffffffffffffffffffffffff167f896e034966eaaf1adc54acc0f257056febbd300c9e47182cf761982cf1f5e430826040518082815260200191505060405180910390a250565b60045481565b60005481565b60076020528060005260406000206000915090505481565b60086020528060005260406000206000915090505481565b60035481565b600560149054906101000a900460ff1681565b600560009054906101000a900473ffffffffffffffffffffffffffffffffffffffff1681565b600660009054906101000a900473ffffffffffffffffffffffffffffffffffffffff1681565b600080831415610d085760009050610d27565b8183029050818382811515610d1957fe5b04141515610d2357fe5b8090505b92915050565b60008183019050828110151515610d4057fe5b80905092915050565b6000828211151515610d5757fe5b8183039050929150505600a165627a7a72305820aa0c8b39dfd7a5f39c4116359a9e6c465a6eb368217d8588ddc379a719a05ece0029",
  "source": "import 'openzeppelin-solidity/contracts/math/SafeMath.sol';\nimport 'openzeppelin-solidity/contracts/token/ERC20/ERC20.sol';\n\npragma solidity 0.4.23;\n\n\ncontract FelixPool {\n    using SafeMath for uint;\n    uint public threshold;\n    uint public endTime;\n    uint public rate;\n    uint public totalTokens;\n    uint public totalContributions;\n    address public admin;\n    bool public tokenAddressConfirmed;\n\n    ERC20 public token;\n\n    mapping (address => uint) public contributions;\n    mapping (address => uint) public tokenEntitlements;\n\n    event ContributionMade(address indexed investor, uint contribution);\n    event ContributionWithdrawn(address indexed investor, uint contribution);\n    event TokenConfirmed(address tokenAddress);\n    event TokensClaimed(address indexed investor, uint claimed);\n\n    /*\n     * @dev Constructor function of FelixPool contract\n     * @param _threshold minimum amount of WEI for the pool to be successful\n     * @param _endTime unix timestamp when pool is no longer accepting deposits\n     * @param _rate multiplier which defines how many tokens to be received per Ether\n     */\n    constructor(uint _threshold, uint _endTime, uint _rate) public {\n        admin = msg.sender;\n        require(_threshold != 0 && _rate != 0);\n        require(now < _endTime);\n\n        threshold = _threshold;\n        endTime = _endTime;\n        rate = _rate;\n    }\n\n  /*\n   * @dev Fallback\n   */\n    function () public payable {\n        deposit();\n    }\n\n    /*\n     * @dev Allows contributors to invest in the pool\n     */\n    function deposit() public payable {\n        require(now <= endTime);\n        uint value = msg.value;\n        uint tokensToReceive = value.mul(rate);\n\n        contributions[msg.sender] = contributions[msg.sender].add(value);\n        tokenEntitlements[msg.sender] = tokenEntitlements[msg.sender].add(tokensToReceive);\n        totalTokens = totalTokens.add(tokensToReceive);\n        totalContributions = totalContributions.add(value);\n        emit ContributionMade(msg.sender, value);\n    }\n\n    /*\n     * @dev Allows contributors to withdral their investments before the pool closes\n     * or when the refundsAllowed flag is set\n     */\n    function withdrawContribution() public {\n        require(totalContributions < threshold && contributions[msg.sender] > 0);\n\n        uint withdrawalValue = contributions[msg.sender];\n\n        totalContributions = totalContributions.sub(withdrawalValue);\n        totalTokens = totalTokens.sub(tokenEntitlements[msg.sender]);\n\n        tokenEntitlements[msg.sender] = 0;\n        contributions[msg.sender] = 0;\n        msg.sender.transfer(withdrawalValue);\n\n        emit ContributionWithdrawn(msg.sender, withdrawalValue);\n    }\n\n    /*\n     * @dev Add ERC20 token for the contract\n     * @param _tokenAddress ERC20 token contract address\n     */\n    function confirmTokenAddress(ERC20 _tokenAddress) public {\n        require(msg.sender == admin);\n        require(now > endTime);\n\n        tokenAddressConfirmed = true;\n        token = ERC20(_tokenAddress);\n\n        require(token.balanceOf(address(this)) >= totalTokens);\n        emit TokenConfirmed(_tokenAddress);\n    }\n\n    /*\n     * @dev Allow investors to claim their purchase tokens\n     */\n    function claimEntitledTokens() public {\n        require(tokenAddressConfirmed);\n        require(tokenEntitlements[msg.sender] > 0);\n\n        uint entitlement = tokenEntitlements[msg.sender];\n        tokenEntitlements[msg.sender] = 0;\n        token.transfer(msg.sender, entitlement);\n        emit TokensClaimed(msg.sender, entitlement);\n    }\n}\n",
  "sourcePath": "/Users/michaelteixeira/Documents/Development/Blockchain/felix-contract/contracts/FelixPool.sol",
  "compiler": {
    "name": "solc",
    "version": "0.4.23+commit.124ca40d.Emscripten.clang"
  },
  "schemaVersion": "2.0.0",
  "updatedAt": "2018-05-10T04:34:43.848Z"
}